:100000000C945D000C9485000C9485000C94850084
:100010000C9485000C9485000C9485000C9485004C
:100020000C9485000C9485000C9485000C9485003C
:100030000C9485000C9485000C9485000C9485002C
:100040000C9464020C9485000C94D4020C94AE02BF
:100050000C9485000C9485000C9485000C9485000C
:100060000C9485000C94850000000008000201003B
:100070000003040700000000000000000000000072
:10008000250028002B0000000000240027002A0083
:10009000040404040404040402020202020203032E
:1000A0000303030301020408102040800102040836
:1000B0001020010204081020520711241FBECFEFA8
:1000C000D8E0DEBFCDBF11E0A0E0B1E0E2E5FFE0A7
:1000D00002C005900D92A631B107D9F721E0A6E143
:1000E000B1E001C01D92A43CB207E1F710E0CDE5FC
:1000F000D0E004C02197FE010E94A107CC35D107B2
:10010000C9F70E9406030C94A7070C94000090E026
:10011000FC01EC55FF4F249180579F4FFC018491C7
:10012000882399F090E0880F991FFC01EA57FF4F50
:10013000A591B491FC01E458FF4F859194918FB73C
:10014000F894EC91E22BEC938FBF089590E0FC01C2
:10015000E859FF4F2491FC01EC55FF4F3491FC010D
:10016000E057FF4FE491EE23C9F0222339F023300A
:1001700001F1A8F4213019F1223029F1F0E0EE0F5D
:10018000FF1FE458FF4FA591B4918FB7F894EC91FD
:10019000611126C030953E233C938FBF08952730D0
:1001A000A9F02830C9F0243049F7809180008F7D74
:1001B00003C0809180008F7780938000DFCF84B56B
:1001C0008F7784BDDBCF84B58F7DFBCF8091B0006E
:1001D0008F778093B000D2CF8091B0008F7DF9CF20
:1001E0003E2BDACFAF92BF92CF92DF92EF92FF9287
:1001F0000F931F93CF93DF936C017B018B01040F4F
:10020000151FEB015E01AE18BF08C017D10759F0EA
:100210006991D601ED91FC910190F081E02DC6012C
:100220000995892B79F7C501DF91CF911F910F9126
:10023000FF90EF90DF90CF90BF90AF900895FC01BA
:10024000538D448D252F30E0842F90E0821B930B3B
:10025000541710F0CF96089501970895FC01918DE1
:10026000828D981761F0A28DAE0FBF2FB11D5D96E4
:100270008C91928D9F5F9F73928F90E008958FEF86
:100280009FEF0895FC01918D828D981731F0828D3A
:10029000E80FF11D858D90E008958FEF9FEF089591
:1002A000FC01918D228D892F90E0805C9F4F821BF5
:1002B00091098F739927089587E291E00E94500178
:1002C00021E0892B09F420E0822F089580E090E05E
:1002D000892B29F00E945C0181110C940000089583
:1002E000FC01A48DA80FB92FB11DA35ABF4F2C91AB
:1002F000848D90E001968F739927848FA689B789A2
:100300002C93A089B1898C91837080648C93938D98
:10031000848D981306C00288F389E02D80818F7D3B
:1003200080830895EF92FF920F931F93CF93DF93F3
:10033000EC0181E0888F9B8D8C8D98131AC0E88921
:10034000F989808185FF15C09FB7F894EE89FF89F0
:100350006083E889F98980818370806480839FBF8E
:1003600081E090E0DF91CF911F910F91FF90EF908E
:100370000895F62E0B8D10E00F5F1F4F0F7311279E
:10038000E02E8C8D8E110CC00FB607FCFACFE889D9
:10039000F989808185FFF5CFCE010E947001F1CFF0
:1003A000EB8DEC0FFD2FF11DE35AFF4FF0829FB74D
:1003B000F8940B8FEA89FB8980818062CFCFCF933D
:1003C000DF93EC01888D8823B9F0AA89BB89E8897D
:1003D000F9898C9185FD03C0808186FD0DC00FB623
:1003E00007FCF7CF8C9185FFF2CF808185FFEDCFA1
:1003F000CE010E947001E9CFDF91CF9108958F92D5
:100400009F92AF92BF920F931F93CF93DF93CDB77D
:10041000DEB7A1970FB6F894DEBF0FBECDBF19A20D
:10042000423008F44AE08E010F5D1F4F842E912C5C
:10043000B12CA12CA50194010E947F07E62FB901E0
:10044000CA01EA3044F5E05DD801EE938D01232B1B
:10045000242B252B79F790E080E0109769F0FD01BF
:1004600001900020E9F73197AF014A1B5B0BBD01FA
:1004700087E291E00E94F200A1960FB6F894DEBFE9
:100480000FBECDBFDF91CF911F910F91BF90AF9065
:100490009F908F900895E95CD7CFCF93DF934AE088
:1004A00061E070E080E090E00E94FF01EC0142E03A
:1004B00050E062E171E087E291E00E94F2008C0F6F
:1004C0009D1FDF91CF9108951F920F920FB60F924B
:1004D00011242F933F938F939F93AF93BF9380915A
:1004E000230190912401A0912501B0912601309122
:1004F000220123E0230F2D3758F50196A11DB11DD0
:10050000209322018093230190932401A09325013D
:10051000B093260180911E0190911F01A0912001AE
:10052000B09121010196A11DB11D80931E019093F0
:100530001F01A0932001B0932101BF91AF919F9122
:100540008F913F912F910F900FBE0F901F90189594
:1005500026E8230F0296A11DB11DD2CF1F920F9244
:100560000FB60F9211242F933F934F935F936F9386
:100570007F938F939F93AF93BF93EF93FF9387E204
:1005800091E00E947001FF91EF91BF91AF919F9117
:100590008F917F916F915F914F913F912F910F902C
:1005A0000FBE0F901F9018951F920F920FB60F92CB
:1005B00011242F938F939F93EF93FF93E091370133
:1005C000F09138018081E0913D01F0913E0182FD82
:1005D0001BC09081809140018F5F8F7320914101FA
:1005E000821741F0E0914001F0E0E95DFE4F958F08
:1005F00080934001FF91EF919F918F912F910F90E8
:100600000FBE0F901F9018958081F4CF789484B519
:10061000826084BD84B5816084BD85B5826085BDFE
:1006200085B5816085BD80916E00816080936E008C
:10063000109281008091810082608093810080917E
:10064000810081608093810080918000816080932F
:1006500080008091B10084608093B1008091B000EF
:1006600081608093B00080917A00846080937A00EA
:1006700080917A00826080937A0080917A00816014
:1006800080937A0080917A00806880937A0010923B
:10069000C1008BE00E94870087E00E948700E09104
:1006A0003701F091380182E08083E0913301F091CD
:1006B00034011082E0913501F09136018FEC808396
:1006C00010923F01E0913B01F0913C0186E0808374
:1006D000E0913901F0913A01808180618083E0915D
:1006E0003901F0913A01808188608083E09139017D
:1006F000F0913A01808180688083E0913901F09126
:100700003A0180818F7D80830BE811E0CBECD7E04C
:1007100082E9282E8EE0382E9AEE492E92E0592E4C
:10072000F5E26F2E712CA7E0CA2ED12CAA24A39437
:10073000B12C10921D0110921C0187E291E00E94E1
:1007400050011816190644F487E291E00E942E0128
:1007500090931D0180931C0180911C0190911D01BB
:100760008D34910531F48BE39FE10197F1F70E94FD
:100770004D0280911C0190911D01C497E1F460E04D
:1007800087E00E94A600EAEEEE2EE2E0FE2E61E097
:100790008BE00E94A600C8010197F1F760E08BE0B2
:1007A0000E94A600C8010197F1F721E0E21AF108C2
:1007B00071F70E944D0280911C0190911D01C2971A
:1007C000E1F461E087E00E94A6007AEEE72E72E095
:1007D000F72E61E08BE00E94A600C8010197F1F7B7
:1007E00060E08BE00E94A600C8010197F1F731E0BC
:1007F000E31AF10871F70E944D0280911C0190915B
:100800001D01C597D9F461E087E00E94A60066E06B
:10081000E62EF12C61E08BE00E94A600C801019752
:10082000F1F760E08BE00E94A600C8010197F1F7A4
:1008300081E0E81AF10871F70E944D0280911C01D5
:1008400090911D01C397D9F460E087E00E94A60053
:1008500056E0E52EF12C61E08BE00E94A600C80175
:100860000197F1F760E08BE00E94A600C8010197B4
:10087000F1F791E0E91AF10871F70E944D028091B9
:100880001C0190911D01C797D9F460E087E00E9498
:10089000A6004CE0E42EF12C61E08BE00E94A60063
:1008A000C8010197F1F760E08BE00E94A600C80143
:1008B0000197F1F721E0E21AF10871F70E944D0269
:1008C00080911C0190911D01C697D9F460E087E0EA
:1008D0000E94A6003CE0E32EF12C61E08BE00E9438
:1008E000A600C8010197F1F760E08BE00E94A60026
:1008F000C8010197F1F731E0E31AF10871F70E949E
:100900004D0280911C0190911D01C097D9F461E0C6
:1009100087E00E94A6002CE0E22EF12C61E08BE043
:100920000E94A600C8010197F1F760E08BE00E94E9
:10093000A600C8010197F1F781E0E81AF10871F704
:100940000E944D0280911C0190911D01C19729F5D3
:1009500061E087E00E94A60095E7E92EFF24F3946A
:1009600061E08BE00E94A600C8010197F1F760E00A
:100970008BE00E94A600C8010197F1F791E0E91A07
:10098000F10871F780911A0190911B0101969093E3
:100990001B0180931A010E944D0280911C019091CD
:1009A0001D01C29799F560E087E00E94A600809142
:1009B0001A0190911B010A9725E731E0829F4001BF
:1009C000839F900C929F900C112490921901809219
:1009D0001801F12CE12CE814F90494F461E08BE0A7
:1009E0000E94A600C8010197F1F760E08BE00E9429
:1009F000A600C8010197F1F73FEFE31AF30AEBCF26
:100A000010921B0110921A010E944D0280911C014C
:100A100090911D01C99709F561E087E00E94A60049
:100A20008BE490E090931701809316018BE4E82EFD
:100A3000F12C61E08BE00E94A600CE010197F1F756
:100A400060E08BE00E94A600CE010197F1F791E0F3
:100A5000E91AF10871F70E944D0280911C019091F2
:100A60001D01C89709F560E087E00E94A6002BE40D
:100A700030E03093170120931601BBE4EB2EF12CEC
:100A800061E08BE00E94A600CE010197F1F760E0E3
:100A90008BE00E94A600CE010197F1F731E0E31A46
:100AA000F10871F70E944D0280911C0190911D0187
:100AB000CB9711F561E087E00E94A60085E791E001
:100AC0009093170180931601A5E7EA2EFF24F39473
:100AD00061E08BE00E94A600CE010197F1F760E093
:100AE0008BE00E94A600CE010197F1F791E0E91A90
:100AF000F10871F70E944D0280911C0190911D0137
:100B0000CA9711F560E087E00E94A60025E731E072
:100B10003093170120931601F5E7EF2EFF24F3948D
:100B200061E08BE00E94A600CE010197F1F760E042
:100B30008BE00E94A600CE010197F1F731E0E31AA5
:100B4000F10871F70E944D0280911C0190911D01E6
:100B5000CD9701F561E087E00E94A6005092170151
:100B600040921601EAEEEE2EE2E0FE2E61E08BE00E
:100B70000E94A600CE010197F1F760E08BE00E9491
:100B8000A600CE010197F1F781E0E81AF10871F7AC
:100B90000E944D0280911C0190911D01CC9701F59E
:100BA00060E087E00E94A600509217014092160173
:100BB0007AEEE72E72E0F72E61E08BE00E94A6004D
:100BC000CE010197F1F760E08BE00E94A600CE0114
:100BD0000197F1F791E0E91AF10871F70E944D02CF
:100BE00080911C0190911D01CF9701F561E087E094
:100BF0000E94A600309217012092160162E9E62EAB
:100C00006EE0F62E61E08BE00E94A600CE01019717
:100C1000F1F760E08BE00E94A600CE010197F1F7AA
:100C200021E0E21AF10871F70E944D0280911C0147
:100C300090911D01CE9701F560E087E00E94A6002B
:100C4000309217012092160152E9E52E5EE0F52E52
:100C500061E08BE00E94A600CE010197F1F760E011
:100C60008BE00E94A600CE010197F1F731E0E31A74
:100C7000F10871F70E944D0280911C0190911D01B5
:100C800081349105F9F461E087E00E94A60070923A
:100C900017016092160145E2E42EF12C61E08BE031
:100CA0000E94A600CE010197F1F760E08BE00E9460
:100CB000A600CE010197F1F781E0E81AF10871F77B
:100CC0000E944D0280911C0190911D01803491057C
:100CD000F9F460E087E00E94A6007092170160922C
:100CE000160135E2E32EF12C61E08BE00E94A600B4
:100CF000CE010197F1F760E08BE00E94A600CE01E3
:100D00000197F1F791E0E91AF10871F70E944D029D
:100D100080911C0190911D0183349105F9F461E0EB
:100D200087E00E94A600D0921701C092160127E02A
:100D3000E22EF12C61E08BE00E94A600CE0101972B
:100D4000F1F760E08BE00E94A600CE010197F1F779
:100D500021E0E21AF10871F70E944D0280911C0116
:100D600090911D0182349105F9F460E087E00E94C2
:100D7000A600D0921701C092160197E0E92EF12C3F
:100D800061E08BE00E94A600CE010197F1F760E0E0
:100D90008BE00E94A600CE010197F1F731E0E31A43
:100DA000F10871F70E944D0280911C0190911D0184
:100DB00085349105C1F461E087E00E94A600B092FD
:100DC0001701A092160161E08BE00E94A600CE01FF
:100DD0000197F1F760E08BE00E94A600CE01019739
:100DE000F1F70E944D0280911C0190911D01843405
:100DF0009105C1F460E087E00E94A600B09217015F
:100E0000A092160161E08BE00E94A600CE0101973E
:100E1000F1F760E08BE00E94A600CE010197F1F7A8
:100E20000E944D0280911C0190911D018237910515
:100E3000D9F461E087E00E94A6008CE0E82EF12C56
:100E400061E08BE00E94A600C8010197F1F760E025
:100E50008BE00E94A600C8010197F1F781E0E81A33
:100E6000F10871F70E944D0280911C0190911D01C3
:100E70008436910551F460E087E00E94A60060E0AE
:100E80008BE00E94A6000E944D0220E030E0232B60
:100E900009F44FCC0E945C01882309F441CC0E94E4
:100EA000000036CCE7E2F1E01382128288EE93E094
:100EB000A0E0B0E084839583A683B78384E091E0CB
:100EC0009183808385EC90E09587848784EC90E023
:100ED0009787868780EC90E0918B808B81EC90E007
:100EE000938B828B82EC90E0958B848B86EC90E0E8
:100EF000978B868B118E128E138E148E0895A1E21D
:100F00001A2EAA1BBB1BFD010DC0AA1FBB1FEE1F83
:100F1000FF1FA217B307E407F50720F0A21BB30BCE
:100F2000E40BF50B661F771F881F991F1A9469F74A
:100F300060957095809590959B01AC01BD01CF01A6
:100F40000895EE0FFF1F0590F491E02D0994F89499
:020F5000FFCFD1
:100F5200000000009201F2001F01DF0150012E018A
:060F620042010D0A00002F
:00000001FF
